S0160000415453747564696F5F74657374732E737265636F
S11300000C9434000C9446000C9446000C94460066
S11300100C9446000C9446000C9446000C94460044
S11300200C9446000C9446000C9446000C94460034
S11300300C9446000C9446000C9446000C94460024
S11300400C9446000C9446000C9446000C94460014
S11300500C9446000C9446000C9446000C94460004
S11300600C9446000C94460011241FBECFEFD8E038
S1130070DEBFCDBF21E0A0E0B1E001C01D92A131FF
S1130080B207E1F70E94A0000C9484040C940000D1
S1130090CF93DF93CDB7DEB76B970FB6F894DEBF7F
S11300A00FBECDBFCE0102960E94DA0189838981F9
S11300B0882311F081E035C087E490E09D8B8C8B20
S11300C088E490E09F8B8E8B84E490E09F878E87FA
S11300D085E490E0998B888B86E490E09B8B8A8BF7
S11300E085E390E09B8F8A8F8EE690E0998F888FCE
S11300F082E0888783E08F8382E08D8383E08E8330
S113010083E68B8383E68C83CE010296BC0180E078
S11301100E94C60389838981882311F081E001C08C
S113012080E06B960FB6F894DEBF0FBECDBFDF91B3
S1130130CF910895CF93DF93CDB7DEB70000FECF04
S1130140CF93DF9300D0CDB7DEB719820E94480069
S113015089838981882311F00E949A0080E00E949B
S113016010048A838A81882311F00E949A008AE20B
S113017090E02AE230E0F90120812066FC0120832E
S11301808BE290E02BE230E0F90120812F7DFC012D
S113019020838BE290E02BE230E0F901208120649F
S11301A0FC012083809100018F5F809300012091E6
S11301B000018DEC289F812D1124982F96959695FA
S11301C0892F880F880F890F922F981B9093000115
S11301D0E9CFCF93DF9300D01F92CDB7DEB79B83D7
S11301E08A8319828A819B81892B19F481E089830E
S11301F093C08981282F30E08A819B81FC0186810C
S1130200978141E0892B09F040E0842F90E0822B14
S1130210932B21E0892B09F420E029838981282F5D
S113022030E08A819B81FC018085918541E0892BA6
S113023009F040E0842F90E0822B932B21E0892B5E
S113024009F420E029838981282F30E08A819B8169
S1130250FC018081918141E0892B09F040E0842FE9
S113026090E0822B932B21E0892B09F420E0298351
S11302708981282F30E08A819B81FC0182819381CE
S113028041E0892B09F040E0842F90E0822B932BEE
S113029021E0892B09F420E029838981282F30E08B
S11302A08A819B81FC018481958141E0892B09F03D
S11302B040E0842F90E0822B932B21E0892B09F4DA
S11302C020E029838981282F30E08A819B81FC01E9
S11302D08485958541E0892B09F040E0842F90E0E6
S11302E0822B932B21E0892B09F420E02983898137
S11302F0282F30E08A819B81FC018285938541E02F
S1130300892B09F040E0842F90E0822B932B21E08D
S1130310892B09F420E029838981882311F083E063
S113032001C080E00F900F900F90DF91CF9108955E
S1130330CF93DF931F92CDB7DEB78983898188235A
S113034011F084E001C080E00F90DF91CF91089517
S1130350CF93DF9300D000D0CDB7DEB78A837C8300
S11303606B838A810E94980189838981882311F093
S1130370898119C08B819C81892B11F482E013C07F
S11303808A81882F90E082959295907F9827807F2C
S113039098278F5F9E4F2B813C814EE050E0B9013E
S11303A00E947B0489810F900F900F900F90DF9132
S11303B0CF910895CF93DF9300D01F92CDB7DEB7CE
S11303C09B838A8319828981882311F089815AC089
S11303D08A819B81892B11F482E054C08A819B819C
S11303E0FC0117828A819B81FC0110868A819B8192
S11303F0FC0111868A819B81FC0110828A819B8188
S1130400FC0111828A819B81FC0112828A819B8179
S1130410FC0116828A819B81FC0115828A819B8161
S1130420FC0113828A819B81FC0114828A819B8155
S1130430FC0112868A819B81FC0113868A819B813F
S1130440FC01138A128A8A819B81FC01158A148A11
S11304508A819B81FC01158614868A819B81FC011B
S1130460178616868A819B81FC01118A108A8A81EB
S11304709B81FC01118E108E8A819B81FC01178A5D
S1130480168A89810F900F900F90DF91CF91089574
S1130490CF93DF9300D000D000D0CDB7DEB78C83EC
S11304A07E836D8319828C81882F90E0829592954A
S11304B0907F9827807F98278F5F9E4F9B838A83A6
S11304C08C81882F90E02D813E81F90126818295CF
S11304D09295907F9827807F9827815F9E4FFC019B
S11304E020838A819B81FC01848195812D813E81B9
S11304F0F9012081FC0120838A819B81FC01848590
S11305009585FC0110828A819B81FC0186819781FB
S11305102D813E81F9012181FC0120838A819B8107
S1130520FC01808591852D813E81F9012281FC01A8
S113053020838A819B81FC01808191812A813B8176
S1130540F90120813181F9012081422F4F732D81DE
S11305503E81F9012381222F30E00024369527952E
S11305600794369527950794322F202D242BFC01D0
S113057020838A819B81FC01808191812A813B8136
S1130580F90120813181F9012081422F4F7C2D8195
S11305903E81F9012481222F30E022953295307F6B
S11305A03227207F3227242BFC0120838A819B81E0
S11305B0FC01808191812A813B81F9012081318173
S11305C0F9012081422F4C7F2D813E81F901258143
S11305D02370242BFC0120838A819B81FC0182816E
S11305E093812A813B81F90122813381F9012081A0
S11305F0422F477F2D813E81F90125812470220FEE
S1130600242BFC0120838D819E81FC01828588231B
S113061081F08A819B81FC01828193812A813B81C3
S1130620F90122813381F90120812068FC012083B2
S11306300FC08A819B81FC01828193812A813B8145
S1130640F90122813381F90120812F77FC01208374
S11306508D819E81FC018385882381F08A819B8121
S1130660FC01828193812A813B81F90122813381BA
S1130670F90120812064FC0120830FC08A819B81C1
S1130680FC01828193812A813B81F901228133819A
S1130690F90120812F7BFC0120838D819E81FC0147
S11306A08781882381F08A819B81FC0182859385DF
S11306B02A813B81F90122853385F9012081226059
S11306C0FC0120830FC08A819B81FC018285938574
S11306D02A813B81F90122853385F90120812D7F0F
S11306E0FC0120838D819E81FC018085882381F01B
S11306F08A819B81FC01828593852A813B81F90152
S113070022853385F90120812460FC0120830FC0F8
S11307108A819B81FC01828593852A813B81F90131
S113072022853385F90120812B7FFC0120838D8173
S11307309E81FC018185882381F08A819B81FC0153
S1130740828593852A813B81F90122853385F901CC
S113075020812160FC0120830FC08A819B81FC01E0
S1130760828593852A813B81F90122853385F901AC
S113077020812E7FFC012083898126960FB6F89470
S1130780DEBF0FBECDBFDF91CF910895CF93DF932E
S113079000D000D0CDB7DEB78A837C836B838A8197
S11307A00E94980189838981882311F0898131C04D
S11307B08B819C810C960E94E9008983898188231E
S11307C011F0898126C08B819C810C96BC018A81A1
S11307D00E94A80189838981882311F0898119C025
S11307E08B819C81BC018A810E9448028983898112
S11307F0882371F48A81882F90E082959295907F66
S11308009827807F9827805F9E4F21E0FC012083FA
S113081089810F900F900F900F90DF91CF910895E1
S1130820CF93DF9300D0CDB7DEB78A838A810E944D
S1130830980189838981882311F0898157C08A812D
S1130840882F90E082959295907F9827807F9827B3
S11308508F5F9E4F0E94E90089838981882311F06C
S1130860898144C08A81882F90E082959295907FF7
S11308709827807F9827805F9E4FFC01908181E0BC
S11308808927882311F085E031C08A81882F90E080
S113089082959295907F9827807F98278D5F9E4FB1
S11308A0FC01808191812A81222F30E022953295AA
S11308B0307F3227207F32272D5F3E4FF901208180
S11308C03181F9012081422F487F2A81222F30E093
S11308D022953295307F3227207F3227215F3E4F89
S11308E0F9012081242BFC01208389810F900F9032
S11308F0DF91CF910895FB01DC0102C001900D92BC
S10F090041505040D8F70895F894FFCF00
S9030000FC
